{
  "_format": "hh-sol-artifact-1",
  "contractName": "Zap",
  "sourceName": "contracts/Zap.sol",
  "abi": [
    {
      "inputs": [
        {
          "internalType": "address",
          "name": "_weth",
          "type": "address"
        },
        {
          "internalType": "address",
          "name": "_router",
          "type": "address"
        }
      ],
      "stateMutability": "nonpayable",
      "type": "constructor"
    },
    {
      "anonymous": false,
      "inputs": [
        {
          "indexed": true,
          "internalType": "address",
          "name": "intermediateToken",
          "type": "address"
        }
      ],
      "name": "AddIntermediateToken",
      "type": "event"
    },
    {
      "anonymous": false,
      "inputs": [
        {
          "indexed": true,
          "internalType": "address",
          "name": "liquidityPool",
          "type": "address"
        },
        {
          "indexed": false,
          "internalType": "bool",
          "name": "isFromFactory",
          "type": "bool"
        }
      ],
      "name": "AddLiquidityPool",
      "type": "event"
    },
    {
      "anonymous": false,
      "inputs": [
        {
          "indexed": true,
          "internalType": "address",
          "name": "token",
          "type": "address"
        },
        {
          "indexed": false,
          "internalType": "bool",
          "name": "isFromFactory",
          "type": "bool"
        }
      ],
      "name": "AddToken",
      "type": "event"
    },
    {
      "anonymous": false,
      "inputs": [
        {
          "indexed": false,
          "internalType": "uint256",
          "name": "startFromPairIndex",
          "type": "uint256"
        },
        {
          "indexed": false,
          "internalType": "uint256",
          "name": "endAtPairIndex",
          "type": "uint256"
        }
      ],
      "name": "FetchLiquidityPoolsFromFactory",
      "type": "event"
    },
    {
      "anonymous": false,
      "inputs": [
        {
          "indexed": true,
          "internalType": "address",
          "name": "previousOwner",
          "type": "address"
        },
        {
          "indexed": true,
          "internalType": "address",
          "name": "newOwner",
          "type": "address"
        }
      ],
      "name": "OwnershipTransferred",
      "type": "event"
    },
    {
      "anonymous": false,
      "inputs": [
        {
          "indexed": true,
          "internalType": "address",
          "name": "intermediateToken",
          "type": "address"
        }
      ],
      "name": "RemoveIntermediateToken",
      "type": "event"
    },
    {
      "anonymous": false,
      "inputs": [
        {
          "indexed": true,
          "internalType": "address",
          "name": "liquidityPool",
          "type": "address"
        }
      ],
      "name": "RemoveLiquidityPool",
      "type": "event"
    },
    {
      "anonymous": false,
      "inputs": [
        {
          "indexed": true,
          "internalType": "address",
          "name": "fromToken",
          "type": "address"
        },
        {
          "indexed": true,
          "internalType": "address",
          "name": "toToken",
          "type": "address"
        }
      ],
      "name": "RemovePresetPath",
      "type": "event"
    },
    {
      "anonymous": false,
      "inputs": [
        {
          "indexed": true,
          "internalType": "address",
          "name": "token",
          "type": "address"
        }
      ],
      "name": "RemoveToken",
      "type": "event"
    },
    {
      "anonymous": false,
      "inputs": [
        {
          "indexed": true,
          "internalType": "address",
          "name": "fromToken",
          "type": "address"
        },
        {
          "indexed": true,
          "internalType": "address",
          "name": "toToken",
          "type": "address"
        },
        {
          "indexed": false,
          "internalType": "address[]",
          "name": "paths",
          "type": "address[]"
        },
        {
          "indexed": false,
          "internalType": "bool",
          "name": "isAutoGenerated",
          "type": "bool"
        }
      ],
      "name": "SetPresetPath",
      "type": "event"
    },
    {
      "anonymous": false,
      "inputs": [
        {
          "indexed": false,
          "internalType": "address[]",
          "name": "paths",
          "type": "address[]"
        },
        {
          "indexed": false,
          "internalType": "uint256[]",
          "name": "amounts",
          "type": "uint256[]"
        }
      ],
      "name": "SwapExactTokensForTokens",
      "type": "event"
    },
    {
      "anonymous": false,
      "inputs": [
        {
          "indexed": true,
          "internalType": "address",
          "name": "to",
          "type": "address"
        },
        {
          "indexed": false,
          "internalType": "uint256",
          "name": "amount",
          "type": "uint256"
        },
        {
          "indexed": false,
          "internalType": "uint256",
          "name": "outputAmount",
          "type": "uint256"
        }
      ],
      "name": "ZapIn",
      "type": "event"
    },
    {
      "anonymous": false,
      "inputs": [
        {
          "indexed": true,
          "internalType": "address",
          "name": "from",
          "type": "address"
        },
        {
          "indexed": true,
          "internalType": "address",
          "name": "to",
          "type": "address"
        },
        {
          "indexed": false,
          "internalType": "uint256",
          "name": "amount",
          "type": "uint256"
        },
        {
          "indexed": false,
          "internalType": "uint256",
          "name": "outputAmount",
          "type": "uint256"
        }
      ],
      "name": "ZapInToken",
      "type": "event"
    },
    {
      "anonymous": false,
      "inputs": [
        {
          "indexed": true,
          "internalType": "address",
          "name": "from",
          "type": "address"
        },
        {
          "indexed": true,
          "internalType": "address",
          "name": "to",
          "type": "address"
        },
        {
          "indexed": false,
          "internalType": "uint256",
          "name": "amount",
          "type": "uint256"
        },
        {
          "indexed": false,
          "internalType": "uint256",
          "name": "outputAmount",
          "type": "uint256"
        }
      ],
      "name": "ZapOut",
      "type": "event"
    },
    {
      "inputs": [],
      "name": "FACTORY",
      "outputs": [
        {
          "internalType": "contract IUniswapV2Factory",
          "name": "",
          "type": "address"
        }
      ],
      "stateMutability": "view",
      "type": "function"
    },
    {
      "inputs": [],
      "name": "ROUTER",
      "outputs": [
        {
          "internalType": "contract IUniswapV2Router02",
          "name": "",
          "type": "address"
        }
      ],
      "stateMutability": "view",
      "type": "function"
    },
    {
      "inputs": [],
      "name": "WETH",
      "outputs": [
        {
          "internalType": "address",
          "name": "",
          "type": "address"
        }
      ],
      "stateMutability": "view",
      "type": "function"
    },
    {
      "inputs": [
        {
          "internalType": "address",
          "name": "_tokenAddress",
          "type": "address"
        }
      ],
      "name": "addIntermediateToken",
      "outputs": [],
      "stateMutability": "nonpayable",
      "type": "function"
    },
    {
      "inputs": [
        {
          "internalType": "address",
          "name": "_lpAddress",
          "type": "address"
        }
      ],
      "name": "addLiquidityPool",
      "outputs": [],
      "stateMutability": "nonpayable",
      "type": "function"
    },
    {
      "inputs": [
        {
          "internalType": "address",
          "name": "_tokenAddress",
          "type": "address"
        }
      ],
      "name": "addToken",
      "outputs": [],
      "stateMutability": "nonpayable",
      "type": "function"
    },
    {
      "inputs": [],
      "name": "fetchLiquidityPoolsFromFactory",
      "outputs": [],
      "stateMutability": "nonpayable",
      "type": "function"
    },
    {
      "inputs": [
        {
          "internalType": "uint256",
          "name": "_startFromPairIndex",
          "type": "uint256"
        },
        {
          "internalType": "uint256",
          "name": "_interval",
          "type": "uint256"
        }
      ],
      "name": "fetchLiquidityPoolsFromFactoryWithIndex",
      "outputs": [],
      "stateMutability": "nonpayable",
      "type": "function"
    },
    {
      "inputs": [
        {
          "internalType": "address",
          "name": "_fromToken",
          "type": "address"
        },
        {
          "internalType": "address",
          "name": "_toToken",
          "type": "address"
        }
      ],
      "name": "getAutoCalculatedPathWithIntermediateTokenForTokenToToken",
      "outputs": [
        {
          "internalType": "address[]",
          "name": "",
          "type": "address[]"
        }
      ],
      "stateMutability": "view",
      "type": "function"
    },
    {
      "inputs": [
        {
          "internalType": "uint256",
          "name": "_i",
          "type": "uint256"
        }
      ],
      "name": "getIntermediateToken",
      "outputs": [
        {
          "internalType": "address",
          "name": "",
          "type": "address"
        }
      ],
      "stateMutability": "view",
      "type": "function"
    },
    {
      "inputs": [],
      "name": "getIntermediateTokenListLength",
      "outputs": [
        {
          "internalType": "uint256",
          "name": "",
          "type": "uint256"
        }
      ],
      "stateMutability": "view",
      "type": "function"
    },
    {
      "inputs": [
        {
          "internalType": "address",
          "name": "_tokenA",
          "type": "address"
        },
        {
          "internalType": "address",
          "name": "_tokenB",
          "type": "address"
        }
      ],
      "name": "getLiquidityPoolAddress",
      "outputs": [
        {
          "internalType": "address",
          "name": "",
          "type": "address"
        }
      ],
      "stateMutability": "view",
      "type": "function"
    },
    {
      "inputs": [
        {
          "internalType": "address",
          "name": "_fromToken",
          "type": "address"
        },
        {
          "internalType": "address",
          "name": "_toToken",
          "type": "address"
        }
      ],
      "name": "getPathForTokenToToken",
      "outputs": [
        {
          "internalType": "address[]",
          "name": "",
          "type": "address[]"
        }
      ],
      "stateMutability": "view",
      "type": "function"
    },
    {
      "inputs": [
        {
          "internalType": "address",
          "name": "_tokenA",
          "type": "address"
        },
        {
          "internalType": "address",
          "name": "_tokenB",
          "type": "address"
        }
      ],
      "name": "getPresetPath",
      "outputs": [
        {
          "internalType": "address[]",
          "name": "",
          "type": "address[]"
        }
      ],
      "stateMutability": "view",
      "type": "function"
    },
    {
      "inputs": [
        {
          "internalType": "address",
          "name": "_fromToken",
          "type": "address"
        },
        {
          "internalType": "address",
          "name": "_toLP",
          "type": "address"
        }
      ],
      "name": "getSuitableIntermediateTokenForTokenToLP",
      "outputs": [
        {
          "internalType": "address",
          "name": "",
          "type": "address"
        }
      ],
      "stateMutability": "view",
      "type": "function"
    },
    {
      "inputs": [
        {
          "internalType": "uint256",
          "name": "i",
          "type": "uint256"
        }
      ],
      "name": "getToken",
      "outputs": [
        {
          "internalType": "address",
          "name": "",
          "type": "address"
        }
      ],
      "stateMutability": "view",
      "type": "function"
    },
    {
      "inputs": [],
      "name": "getTokenListLength",
      "outputs": [
        {
          "internalType": "uint256",
          "name": "",
          "type": "uint256"
        }
      ],
      "stateMutability": "view",
      "type": "function"
    },
    {
      "inputs": [
        {
          "internalType": "uint256",
          "name": "",
          "type": "uint256"
        }
      ],
      "name": "intermediateTokenList",
      "outputs": [
        {
          "internalType": "address",
          "name": "",
          "type": "address"
        }
      ],
      "stateMutability": "view",
      "type": "function"
    },
    {
      "inputs": [
        {
          "internalType": "address",
          "name": "",
          "type": "address"
        }
      ],
      "name": "intermediateTokens",
      "outputs": [
        {
          "internalType": "uint256",
          "name": "",
          "type": "uint256"
        }
      ],
      "stateMutability": "view",
      "type": "function"
    },
    {
      "inputs": [
        {
          "internalType": "address",
          "name": "_address",
          "type": "address"
        }
      ],
      "name": "isLP",
      "outputs": [
        {
          "internalType": "bool",
          "name": "",
          "type": "bool"
        }
      ],
      "stateMutability": "view",
      "type": "function"
    },
    {
      "inputs": [
        {
          "internalType": "address",
          "name": "_tokenA",
          "type": "address"
        },
        {
          "internalType": "address",
          "name": "_tokenB",
          "type": "address"
        }
      ],
      "name": "isLiquidityPoolExistInFactory",
      "outputs": [
        {
          "internalType": "bool",
          "name": "",
          "type": "bool"
        }
      ],
      "stateMutability": "view",
      "type": "function"
    },
    {
      "inputs": [
        {
          "internalType": "address",
          "name": "_address",
          "type": "address"
        }
      ],
      "name": "isToken",
      "outputs": [
        {
          "internalType": "bool",
          "name": "",
          "type": "bool"
        }
      ],
      "stateMutability": "view",
      "type": "function"
    },
    {
      "inputs": [],
      "name": "lastFetchedPairIndex",
      "outputs": [
        {
          "internalType": "uint256",
          "name": "",
          "type": "uint256"
        }
      ],
      "stateMutability": "view",
      "type": "function"
    },
    {
      "inputs": [
        {
          "internalType": "address",
          "name": "",
          "type": "address"
        }
      ],
      "name": "liquidityPools",
      "outputs": [
        {
          "internalType": "bool",
          "name": "",
          "type": "bool"
        }
      ],
      "stateMutability": "view",
      "type": "function"
    },
    {
      "inputs": [],
      "name": "owner",
      "outputs": [
        {
          "internalType": "address",
          "name": "",
          "type": "address"
        }
      ],
      "stateMutability": "view",
      "type": "function"
    },
    {
      "inputs": [
        {
          "internalType": "address",
          "name": "",
          "type": "address"
        },
        {
          "internalType": "address",
          "name": "",
          "type": "address"
        },
        {
          "internalType": "uint256",
          "name": "",
          "type": "uint256"
        }
      ],
      "name": "presetPaths",
      "outputs": [
        {
          "internalType": "address",
          "name": "",
          "type": "address"
        }
      ],
      "stateMutability": "view",
      "type": "function"
    },
    {
      "inputs": [
        {
          "internalType": "address",
          "name": "_intermediateTokenAddress",
          "type": "address"
        }
      ],
      "name": "removeIntermediateToken",
      "outputs": [],
      "stateMutability": "nonpayable",
      "type": "function"
    },
    {
      "inputs": [
        {
          "internalType": "address",
          "name": "_lpAddress",
          "type": "address"
        }
      ],
      "name": "removeLiquidityPool",
      "outputs": [],
      "stateMutability": "nonpayable",
      "type": "function"
    },
    {
      "inputs": [
        {
          "internalType": "address",
          "name": "tokenA",
          "type": "address"
        },
        {
          "internalType": "address",
          "name": "tokenB",
          "type": "address"
        }
      ],
      "name": "removePresetPath",
      "outputs": [],
      "stateMutability": "nonpayable",
      "type": "function"
    },
    {
      "inputs": [
        {
          "internalType": "address",
          "name": "_tokenAddress",
          "type": "address"
        }
      ],
      "name": "removeToken",
      "outputs": [],
      "stateMutability": "nonpayable",
      "type": "function"
    },
    {
      "inputs": [],
      "name": "renounceOwnership",
      "outputs": [],
      "stateMutability": "nonpayable",
      "type": "function"
    },
    {
      "inputs": [
        {
          "internalType": "address",
          "name": "_tokenA",
          "type": "address"
        },
        {
          "internalType": "address",
          "name": "_tokenB",
          "type": "address"
        },
        {
          "internalType": "address[]",
          "name": "_path",
          "type": "address[]"
        }
      ],
      "name": "setPresetPath",
      "outputs": [],
      "stateMutability": "nonpayable",
      "type": "function"
    },
    {
      "inputs": [
        {
          "internalType": "address",
          "name": "_tokenA",
          "type": "address"
        },
        {
          "internalType": "address",
          "name": "_tokenB",
          "type": "address"
        }
      ],
      "name": "setPresetPathByAutoCalculation",
      "outputs": [],
      "stateMutability": "nonpayable",
      "type": "function"
    },
    {
      "inputs": [
        {
          "internalType": "uint256",
          "name": "",
          "type": "uint256"
        }
      ],
      "name": "tokenList",
      "outputs": [
        {
          "internalType": "address",
          "name": "",
          "type": "address"
        }
      ],
      "stateMutability": "view",
      "type": "function"
    },
    {
      "inputs": [
        {
          "internalType": "address",
          "name": "",
          "type": "address"
        }
      ],
      "name": "tokens",
      "outputs": [
        {
          "internalType": "uint256",
          "name": "",
          "type": "uint256"
        }
      ],
      "stateMutability": "view",
      "type": "function"
    },
    {
      "inputs": [
        {
          "internalType": "address",
          "name": "newOwner",
          "type": "address"
        }
      ],
      "name": "transferOwnership",
      "outputs": [],
      "stateMutability": "nonpayable",
      "type": "function"
    },
    {
      "inputs": [
        {
          "internalType": "address",
          "name": "_token",
          "type": "address"
        },
        {
          "internalType": "uint256",
          "name": "_amount",
          "type": "uint256"
        }
      ],
      "name": "withdrawBalance",
      "outputs": [],
      "stateMutability": "payable",
      "type": "function"
    },
    {
      "inputs": [
        {
          "internalType": "address",
          "name": "_toTokenOrLp",
          "type": "address"
        },
        {
          "internalType": "uint256",
          "name": "_outputAmountMin",
          "type": "uint256"
        }
      ],
      "name": "zapIn",
      "outputs": [
        {
          "internalType": "uint256",
          "name": "",
          "type": "uint256"
        }
      ],
      "stateMutability": "payable",
      "type": "function"
    },
    {
      "inputs": [
        {
          "internalType": "address",
          "name": "_fromToken",
          "type": "address"
        },
        {
          "internalType": "uint256",
          "name": "_inputAmount",
          "type": "uint256"
        },
        {
          "internalType": "address",
          "name": "_toTokenOrLp",
          "type": "address"
        },
        {
          "internalType": "uint256",
          "name": "_outputAmountMin",
          "type": "uint256"
        }
      ],
      "name": "zapInToken",
      "outputs": [
        {
          "internalType": "uint256",
          "name": "",
          "type": "uint256"
        }
      ],
      "stateMutability": "nonpayable",
      "type": "function"
    },
    {
      "inputs": [
        {
          "internalType": "address",
          "name": "_fromLp",
          "type": "address"
        },
        {
          "internalType": "uint256",
          "name": "_inputAmount",
          "type": "uint256"
        },
        {
          "internalType": "address",
          "name": "_toTokenOrLp",
          "type": "address"
        },
        {
          "internalType": "uint256",
          "name": "_outputAmountMin",
          "type": "uint256"
        }
      ],
      "name": "zapOut",
      "outputs": [
        {
          "internalType": "uint256",
          "name": "",
          "type": "uint256"
        }
      ],
      "stateMutability": "payable",
      "type": "function"
    },
    {
      "stateMutability": "payable",
      "type": "receive"
    }
  ],
  "bytecode": "0x60e06040523480156200001157600080fd5b50604051620045ed380380620045ed833981016040819052620000349162000454565b6200003f33620000ec565b600180556001600160a01b03808316608052811660a08190526040805163c45a015560e01b8152905163c45a0155916004808201926020929091908290030181865afa15801562000094573d6000803e3d6000fd5b505050506040513d601f19601f82011682018060405250810190620000ba91906200048c565b6001600160a01b031660c052608051620000d69060006200013c565b608051620000e490620002c7565b5050620004b1565b600080546001600160a01b038381166001600160a01b0319831681178455604051919092169283917f8be0079c531659141344cd1fd0a4f28419497f9722a3daafe3b4186f6b6457e09190a35050565b6001600160a01b038216620001b05760405162461bcd60e51b815260206004820152602f60248201527f5a61703a5f616464546f6b656e3a205f746f6b656e416464726573732073686f60448201526e756c64206e6f74206265207a65726f60881b60648201526084015b60405180910390fd5b620001d8826001600160a01b031660009081526003602052604090205460ff16151560011490565b15620002325760405162461bcd60e51b815260206004820152602260248201527f5a61703a5f616464546f6b656e3a205f746f6b656e416464726573732069732060448201526104c560f41b6064820152608401620001a7565b600580546001810182557f036b6384b5eca791c62761152d0c79bb0604c104a5fb6f4eb0703f3154bb3db00180546001600160a01b0319166001600160a01b0385169081179091559054600082815260046020908152604091829020929092555183151581527f02fb12ee42ca4026d39d2102e2e3d3fcb4d12c158f8e0028f2f1eed6cf33ecbe910160405180910390a25050565b6001600160a01b038116620003345760405162461bcd60e51b815260206004820152603b6024820152600080516020620045cd83398151915260448201527f6e416464726573732073686f756c64206e6f74206265207a65726f00000000006064820152608401620001a7565b6200035c816001600160a01b031660009081526003602052604090205460ff16151560011490565b15620003b15760405162461bcd60e51b815260206004820152602e6024820152600080516020620045cd83398151915260448201526d06e41646472657373206973204c560941b6064820152608401620001a7565b600780546001810182557fa66cc928b5edb82af9bd49922954155ab7b0942694bea4ce44661d9a8736c6880180546001600160a01b0319166001600160a01b03841690811790915590546000828152600660205260408082209290925590517fc15631f4ae3b982224d43ad1bd5b6ba064e060f12830bd78b02a43e183045aae9190a250565b80516001600160a01b03811681146200044f57600080fd5b919050565b600080604083850312156200046857600080fd5b620004738362000437565b9150620004836020840162000437565b90509250929050565b6000602082840312156200049f57600080fd5b620004aa8262000437565b9392505050565b60805160a05160c0516140836200054a600039600081816103a701528181610b6901528181610cc30152818161143c01526114d70152600081816103f3015281816128c90152818161294f01528181612b060152818161308501526135ef0152600081816105ee015281816116fe0152818161172a0152818161178f015281816117cd01528181611bbc0152611cb101526140836000f3fe60806040526004361061023e5760003560e01c80638da5cb5b1161012e578063c02a2fd4116100ab578063e21813381161006f578063e2181338146106ee578063e48603391461070e578063e4b50cb81461073b578063ee6a934c1461075b578063f2fde38b1461077b57600080fd5b8063c02a2fd414610666578063d118a51914610686578063d48bfca7146106a6578063dad4cd52146106c6578063de17ca7d146106d957600080fd5b8063a863ff2f116100f2578063a863ff2f146105c9578063ad5c4648146105dc578063ae22107f14610610578063b7cc146814610630578063bd35d48a1461064657600080fd5b80638da5cb5b14610529578063917c170c1461054757806395d5fe85146105745780639ead722214610594578063a16e647e146105b457600080fd5b806332fe7b26116101bc578063715018a611610180578063715018a61461049457806377c16369146104a95780637c469c0c146104c95780637df0f767146104e957806387e3f21c1461050957600080fd5b806332fe7b26146103e15780635719dd22146104155780635ee7515a146104345780635fa7b584146104545780636b02ea141461047457600080fd5b806319f373611161020357806319f37361146103155780632755b5fa146103355780632962483d146103555780632b0a0fd4146103755780632dd310001461039557600080fd5b806299c5071461024a5780630b0fd47e146102805780630cf20cc9146102c05780630d7eb8a6146102d557806316184ba1146102f557600080fd5b3661024557005b600080fd5b34801561025657600080fd5b5061026a6102653660046139b8565b61079b565b6040516102779190613a35565b60405180910390f35b34801561028c57600080fd5b506102b061029b366004613a48565b60036020526000908152604090205460ff1681565b6040519015158152602001610277565b6102d36102ce366004613a65565b61081f565b005b3480156102e157600080fd5b5061026a6102f03660046139b8565b610a54565b34801561030157600080fd5b506102d36103103660046139b8565b610a67565b34801561032157600080fd5b506102b0610330366004613a48565b610b05565b34801561034157600080fd5b5061026a6103503660046139b8565b610b22565b34801561036157600080fd5b506102d3610370366004613afc565b610b2e565b34801561038157600080fd5b506102d3610390366004613bc2565b610b65565b3480156103a157600080fd5b506103c97f000000000000000000000000000000000000000000000000000000000000000081565b6040516001600160a01b039091168152602001610277565b3480156103ed57600080fd5b506103c97f000000000000000000000000000000000000000000000000000000000000000081565b34801561042157600080fd5b506005545b604051908152602001610277565b34801561044057600080fd5b506103c961044f3660046139b8565b610dbd565b34801561046057600080fd5b506102d361046f366004613a48565b610dc9565b34801561048057600080fd5b506103c961048f366004613be4565b610f56565b3480156104a057600080fd5b506102d3610f86565b3480156104b557600080fd5b506102d36104c4366004613a48565b610fbc565b3480156104d557600080fd5b506102d36104e43660046139b8565b611149565b3480156104f557600080fd5b506102b0610504366004613a48565b611189565b34801561051557600080fd5b50610426610524366004613bfd565b6111ac565b34801561053557600080fd5b506000546001600160a01b03166103c9565b34801561055357600080fd5b50610426610562366004613a48565b60066020526000908152604090205481565b34801561058057600080fd5b506103c961058f3660046139b8565b611412565b3480156105a057600080fd5b506103c96105af366004613be4565b6114a9565b3480156105c057600080fd5b506102d36114d3565b6104266105d7366004613bfd565b611577565b3480156105e857600080fd5b506103c97f000000000000000000000000000000000000000000000000000000000000000081565b34801561061c57600080fd5b506102d361062b366004613a48565b611996565b34801561063c57600080fd5b5061042660025481565b34801561065257600080fd5b506103c9610661366004613c45565b611a09565b34801561067257600080fd5b506103c9610681366004613be4565b611a4e565b34801561069257600080fd5b506102b06106a13660046139b8565b611a5e565b3480156106b257600080fd5b506102d36106c1366004613a48565b611a7d565b6104266106d4366004613a65565b611b38565b3480156106e557600080fd5b50600754610426565b3480156106fa57600080fd5b506102d3610709366004613a48565b611d49565b34801561071a57600080fd5b50610426610729366004613a48565b60046020526000908152604090205481565b34801561074757600080fd5b506103c9610756366004613be4565b611e0a565b34801561076757600080fd5b506102d3610776366004613a48565b611e1f565b34801561078757600080fd5b506102d3610796366004613a48565b611e54565b6001600160a01b03808316600090815260086020908152604080832093851683529281529082902080548351818402810184019094528084526060939283018282801561081157602002820191906000526020600020905b81546001600160a01b031681526001909101906020018083116107f3575b505050505090505b92915050565b6000546001600160a01b031633146108525760405162461bcd60e51b815260040161084990613c86565b60405180910390fd5b6001600160a01b03821661094857478015610943578161090157604051600090339083908381818185875af1925050503d80600081146108ae576040519150601f19603f3d011682016040523d82523d6000602084013e6108b3565b606091505b50509050806108fb5760405162461bcd60e51b81526020600482015260146024820152732330b4b632b2103a379039b2b7321022ba3432b960611b6044820152606401610849565b50505050565b604051600090339084908381818185875af1925050503d80600081146108ae576040519150601f19603f3d011682016040523d82523d6000602084013e6108b3565b505050565b6040516370a0823160e01b81523060048201526000906001600160a01b038416906370a0823190602401602060405180830381865afa15801561098f573d6000803e3d6000fd5b505050506040513d601f19601f820116820180604052508101906109b39190613cbb565b9050816109be578091505b826001600160a01b031663a9059cbb6109df6000546001600160a01b031690565b6040516001600160e01b031960e084901b1681526001600160a01b039091166004820152602481018590526044016020604051808303816000875af1158015610a2c573d6000803e3d6000fd5b505050506040513d601f19601f820116820180604052508101906108fb9190613cd4565b5050565b6060610a608383611eec565b9392505050565b6000546001600160a01b03163314610a915760405162461bcd60e51b815260040161084990613c86565b6001600160a01b0380831660009081526008602090815260408083209385168352929052908120610ac19161390b565b806001600160a01b0316826001600160a01b03167f27cca96a96530203ba7b0736f27ccb9e3b3765abb6cdf91662034cea0402310860405160405180910390a35050565b6001600160a01b0316600090815260046020526040902054151590565b6060610a6083836120a5565b6000546001600160a01b03163314610b585760405162461bcd60e51b815260040161084990613c86565b610943838383600061220b565b60007f00000000000000000000000000000000000000000000000000000000000000006001600160a01b031663574f2ba36040518163ffffffff1660e01b8152600401602060405180830381865afa158015610bc5573d6000803e3d6000fd5b505050506040513d601f19601f82011682018060405250810190610be99190613cbb565b9050808310610c865760405162461bcd60e51b815260206004820152605b60248201527f5a61703a66657463684c6971756964697479506f6f6c7346726f6d466163746f60448201527f727957697468496e6465783a205f737461727446726f6d50616972496e64657860648201527f2073686f756c64203c20666163746f7279506169724c656e6774680000000000608482015260a401610849565b6000610c928385613d0c565b905081811115610c9f5750805b835b81811015610d4f57604051631e3dd18b60e01b815260048101829052610d3d907f00000000000000000000000000000000000000000000000000000000000000006001600160a01b031690631e3dd18b90602401602060405180830381865afa158015610d12573d6000803e3d6000fd5b505050506040513d601f19601f82011682018060405250810190610d369190613d24565b6001612294565b80610d4781613d41565b915050610ca1565b507fa76782213fce5241451c7f5e159bf5c73c4a82661a6620e570e80c934c35b56884610d7d600184613d5c565b6040805192835260208301919091520160405180910390a1610da0600182613d5c565b60025410156108fb57610db4600182613d5c565b60025550505050565b6000610a60838361248e565b6000546001600160a01b03163314610df35760405162461bcd60e51b815260040161084990613c86565b6001600160a01b038116600090815260046020526040812054610e1890600190613d5c565b6001600160a01b038316600090815260046020526040812055600554909150610e4390600190613d5c565b8114610eeb576005805460009190610e5d90600190613d5c565b81548110610e6d57610e6d613d73565b600091825260209091200154600580546001600160a01b039092169250829184908110610e9c57610e9c613d73565b600091825260209091200180546001600160a01b0319166001600160a01b0392909216919091179055610ed0826001613d0c565b6001600160a01b039091166000908152600460205260409020555b6005805480610efc57610efc613d89565b600082815260208120820160001990810180546001600160a01b03191690559091019091556040516001600160a01b038416917f4eb129c82dcd3eedb52df2b0e6fb4cfa41ac64ee9d63ff081acbb1877e85d79b91a25050565b600060078281548110610f6b57610f6b613d73565b6000918252602090912001546001600160a01b031692915050565b6000546001600160a01b03163314610fb05760405162461bcd60e51b815260040161084990613c86565b610fba60006127b1565b565b6000546001600160a01b03163314610fe65760405162461bcd60e51b815260040161084990613c86565b6001600160a01b03811660009081526006602052604081205461100b90600190613d5c565b6001600160a01b03831660009081526006602052604081205560075490915061103690600190613d5c565b81146110de57600780546000919061105090600190613d5c565b8154811061106057611060613d73565b600091825260209091200154600780546001600160a01b03909216925082918490811061108f5761108f613d73565b600091825260209091200180546001600160a01b0319166001600160a01b03929092169190911790556110c3826001613d0c565b6001600160a01b039091166000908152600660205260409020555b60078054806110ef576110ef613d89565b600082815260208120820160001990810180546001600160a01b03191690559091019091556040516001600160a01b038416917f90a3f84c7f380e70131009dd78eaa65c4d523342e691c3e8303544e8fe139b5291a25050565b6000546001600160a01b031633146111735760405162461bcd60e51b815260040161084990613c86565b610a50828261118285856120a5565b600161220b565b6001600160a01b031660009081526003602052604090205460ff16151560011490565b6000600260015414156111d15760405162461bcd60e51b815260040161084990613d9f565b60026001556111df85610b05565b6112405760405162461bcd60e51b815260206004820152602c60248201527f5a61703a7a6170496e546f6b656e3a20676976656e2066726f6d546f6b656e2060448201526b34b9903737ba103a37b5b2b760a11b6064820152608401610849565b61124983610b05565b80611258575061125883611189565b6112c15760405162461bcd60e51b815260206004820152603460248201527f5a61703a7a6170496e546f6b656e3a20676976656e20746f546f6b656e4f724c604482015273070206973206e6f7420746f6b656e206f72204c560641b6064820152608401610849565b600084116113215760405162461bcd60e51b815260206004820152602760248201527f5a61703a7a6170496e546f6b656e3a20676976656e20616d6f756e742073686f6044820152660756c64203e20360cc1b6064820152608401610849565b6113366001600160a01b038616333087612801565b60006113448686863361286c565b9050828110156113af5760405162461bcd60e51b815260206004820152603060248201527f5a61703a7a6170496e546f6b656e3a206f757470757420616d6f756e74206c6560448201526f1cdcc81d1a185b88195e1c1958dd195960821b6064820152608401610849565b836001600160a01b0316866001600160a01b03167f963777cd6436c297e0a22853a32509d63b46241d9858a89350921b3517e552ad87846040516113fd929190918252602082015260400190565b60405180910390a36001805595945050505050565b60405163e6a4390560e01b81526001600160a01b03838116600483015282811660248301526000917f00000000000000000000000000000000000000000000000000000000000000009091169063e6a4390590604401602060405180830381865afa158015611485573d6000803e3d6000fd5b505050506040513d601f19601f82011682018060405250810190610a609190613d24565b600581815481106114b957600080fd5b6000918252602090912001546001600160a01b0316905081565b60017f00000000000000000000000000000000000000000000000000000000000000006001600160a01b031663574f2ba36040518163ffffffff1660e01b8152600401602060405180830381865afa158015611533573d6000803e3d6000fd5b505050506040513d601f19601f820116820180604052508101906115579190613cbb565b6115619190613d5c565b6002541015610fba57610fba6002546008610b65565b60006002600154141561159c5760405162461bcd60e51b815260040161084990613d9f565b60026001556115aa85611189565b6116095760405162461bcd60e51b815260206004820152602a60248201527f5a61703a7a61704f75743a2073686f756c64207a6170206f75742066726f6d206044820152694c50204164647265737360b01b6064820152608401610849565b826001600160a01b0316856001600160a01b0316141561166b5760405162461bcd60e51b815260206004820152601a60248201527f5a61703a7a61704f75743a20696e707574203d206f75747075740000000000006044820152606401610849565b600084116116c75760405162461bcd60e51b815260206004820152602360248201527f5a61703a7a61704f75743a20676976656e20616d6f756e742073686f756c642060448201526203e20360ec1b6064820152608401610849565b6116dc6001600160a01b038616333087612801565b6116e5856128ac565b60006116f084611189565b1561175957600061172387877f000000000000000000000000000000000000000000000000000000000000000030612976565b90506117517f000000000000000000000000000000000000000000000000000000000000000082873361286c565b915050611928565b61176284610b05565b1561177a5761177386868633612976565b9050611928565b6001600160a01b0384166118c6576117b486867f000000000000000000000000000000000000000000000000000000000000000030612976565b604051632e1a7d4d60e01b8152600481018290529091507f00000000000000000000000000000000000000000000000000000000000000006001600160a01b031690632e1a7d4d90602401600060405180830381600087803b15801561181957600080fd5b505af115801561182d573d6000803e3d6000fd5b50506040516000925033915083908381818185875af1925050503d8060008114611873576040519150601f19603f3d011682016040523d82523d6000602084013e611878565b606091505b50509050806118c05760405162461bcd60e51b81526020600482015260146024820152732330b4b632b2103a379039b2b7321022ba3432b960611b6044820152606401610849565b50611928565b60405162461bcd60e51b815260206004820152603160248201527f5a61703a7a61704f75743a2073686f756c64207a6170206f757420746f20546f6044820152706b656e206f72204c50204164647265737360781b6064820152608401610849565b828110156119485760405162461bcd60e51b815260040161084990613dd6565b836001600160a01b0316866001600160a01b03167f49c082cd7a2d84c4820fb8ea8b7cd2a0dac8bac51b973cfc358260a859b3c95987846040516113fd929190918252602082015260400190565b6000546001600160a01b031633146119c05760405162461bcd60e51b815260040161084990613c86565b6001600160a01b038116600081815260036020526040808220805460ff19169055517ff2750254aa8500753755d8adbf0f857f1cf9e03fcd5555a92a3ca87810350e379190a250565b60086020528260005260406000206020528160005260406000208181548110611a3157600080fd5b6000918252602090912001546001600160a01b0316925083915050565b600781815481106114b957600080fd5b600080611a6b8484611412565b6001600160a01b031614159392505050565b6000546001600160a01b03163314611aa75760405162461bcd60e51b815260040161084990613c86565b6001600160a01b03811660009081526004602052604090205415611b2a5760405162461bcd60e51b815260206004820152603460248201527f5a61703a616464546f6b656e3a205f746f6b656e4164647265737320697320616044820152731b1c9958591e481a5b881d1bdad95b881b1a5cdd60621b6064820152608401610849565b611b35816000612c00565b50565b600060026001541415611b5d5760405162461bcd60e51b815260040161084990613d9f565b600260015534611bba5760405162461bcd60e51b815260206004820152602260248201527f5a61703a7a6170496e3a20676976656e20616d6f756e742073686f756c64203e604482015261020360f41b6064820152608401610849565b7f00000000000000000000000000000000000000000000000000000000000000006001600160a01b031663d0e30db0346040518263ffffffff1660e01b81526004016000604051808303818588803b158015611c1557600080fd5b505af1158015611c29573d6000803e3d6000fd5b5050505050611c3783610b05565b80611c465750611c4683611189565b611caa5760405162461bcd60e51b815260206004820152602f60248201527f5a61703a7a6170496e3a20676976656e20746f546f6b656e4f724c702069732060448201526e06e6f7420746f6b656e206f72204c5608c1b6064820152608401610849565b6000611cd87f000000000000000000000000000000000000000000000000000000000000000034863361286c565b905082811015611cfa5760405162461bcd60e51b815260040161084990613dd6565b60408051348152602081018390526001600160a01b038616917f193fb64a5cf261bde281eeee0a0c87ac3818fc1b82a9eeafb907889bc3f84ced910160405180910390a2600180559392505050565b6000546001600160a01b03163314611d735760405162461bcd60e51b815260040161084990613c86565b6001600160a01b03811660009081526006602052604090205415611e01576040805162461bcd60e51b81526020600482015260248101919091527f5a61703a616464496e7465726d656469617465546f6b656e3a205f746f6b656e60448201527f4164647265737320697320616c726561647920696e20746f6b656e206c6973746064820152608401610849565b611b3581612d64565b600060058281548110610f6b57610f6b613d73565b6000546001600160a01b03163314611e495760405162461bcd60e51b815260040161084990613c86565b611b35816000612294565b6000546001600160a01b03163314611e7e5760405162461bcd60e51b815260040161084990613c86565b6001600160a01b038116611ee35760405162461bcd60e51b815260206004820152602660248201527f4f776e61626c653a206e6577206f776e657220697320746865207a65726f206160448201526564647265737360d01b6064820152608401610849565b611b35816127b1565b606080826001600160a01b0316846001600160a01b03161415611f6f5760405162461bcd60e51b815260206004820152603560248201527f5a61703a5f73776170546f6b656e546f546f6b656e3a204e6f7420416c6c6f7760448201527410333937b6aa37b5b2b7101e9e903a37aa37b5b2b760591b6064820152608401610849565b611f798484611a5e565b1561200b5760408051600280825260608201835290916020830190803683370190505090508381600081518110611fb257611fb2613d73565b60200260200101906001600160a01b031690816001600160a01b0316815250508281600181518110611fe657611fe6613d73565b60200260200101906001600160a01b031690816001600160a01b03168152505061202e565b612015848461079b565b905080516000141561202e5761202b84846120a5565b90505b6000815111610a605760405162461bcd60e51b815260206004820152603860248201527f5a61703a5f67657450617468466f72546f6b656e546f546f6b656e3a20446f6560448201527f73206e6f7420737570706f7274207468697320726f75746500000000000000006064820152608401610849565b60608060005b600754811015612203576000600782815481106120ca576120ca613d73565b6000918252602090912001546001600160a01b039081169150861681148015906121065750806001600160a01b0316856001600160a01b031614155b801561211757506121178682611a5e565b801561212857506121288186611a5e565b156121f057604080516003808252608082019092529060208201606080368337019050509250858360008151811061216257612162613d73565b60200260200101906001600160a01b031690816001600160a01b031681525050808360018151811061219657612196613d73565b60200260200101906001600160a01b031690816001600160a01b03168152505084836002815181106121ca576121ca613d73565b60200260200101906001600160a01b031690816001600160a01b03168152505050612203565b50806121fb81613d41565b9150506120ab565b509392505050565b6001600160a01b0380851660009081526008602090815260408083209387168352928152919020835161224092850190613929565b50826001600160a01b0316846001600160a01b03167fb9b43edbbefa85363959fd93ea381b7aa374d8b80e275a892a8b065fb23d52298484604051612286929190613e21565b60405180910390a350505050565b6001600160a01b0382166123075760405162461bcd60e51b815260206004820152603460248201527f5a61703a5f6164644c6971756964697479506f6f6c3a205f6c70416464726573604482015273732073686f756c64206e6f74206265207a65726f60601b6064820152608401610849565b6001600160a01b03821660009081526003602052604090205460ff16610a505760008290506000816001600160a01b0316630dfe16816040518163ffffffff1660e01b8152600401602060405180830381865afa15801561236c573d6000803e3d6000fd5b505050506040513d601f19601f820116820180604052508101906123909190613d24565b90506000826001600160a01b031663d21220a76040518163ffffffff1660e01b8152600401602060405180830381865afa1580156123d2573d6000803e3d6000fd5b505050506040513d601f19601f820116820180604052508101906123f69190613d24565b905061240182610b05565b61241057612410826001612c00565b61241981610b05565b61242857612428816001612c00565b6001600160a01b03851660008181526003602052604090819020805460ff19166001179055517f3409167cbcbdc0e24587ee761aa4b32843bee0d6a77956b802a9212b32538c6c9061247f90871515815260200190565b60405180910390a25050505050565b6000808290506000816001600160a01b0316630dfe16816040518163ffffffff1660e01b8152600401602060405180830381865afa1580156124d4573d6000803e3d6000fd5b505050506040513d601f19601f820116820180604052508101906124f89190613d24565b90506000826001600160a01b031663d21220a76040518163ffffffff1660e01b8152600401602060405180830381865afa15801561253a573d6000803e3d6000fd5b505050506040513d601f19601f8201168201806040525081019061255e9190613d24565b9050816001600160a01b0316866001600160a01b031614806125915750806001600160a01b0316866001600160a01b0316145b156125a157859350505050610819565b6001600160a01b03821660009081526006602052604090205415612617576001600160a01b038116600090815260066020526040902054158015906125ed57506125eb8683611a5e565b155b80156125fe57506125fe8682611a5e565b1561260d579250610819915050565b5091506108199050565b6001600160a01b0381166000908152600660205260409020541561263f579250610819915050565b6001600160a01b0386166000908152600660205260409020541580159061266b575061266b8683611a5e565b801561267c575061267c8682611a5e565b1561268c57859350505050610819565b6000805b600754811015612728576000600782815481106126af576126af613d73565b6000918252602090912001546001600160a01b031690506126d08186611a5e565b80156126e157506126e18185611a5e565b15612715576126f08982611a5e565b15612702579550610819945050505050565b6001600160a01b03811615612715578092505b508061272081613d41565b915050612690565b506001600160a01b0381161561274357935061081992505050565b60405162461bcd60e51b815260206004820152603e60248201527f5a61703a5f6765745375697461626c65496e7465726d656469617465546f6b6560448201527f6e3a20446f6573206e6f7420737570706f7274207468697320726f75746500006064820152608401610849565b600080546001600160a01b038381166001600160a01b0319831681178455604051919092169283917f8be0079c531659141344cd1fd0a4f28419497f9722a3daafe3b4186f6b6457e09190a35050565b6040516001600160a01b03808516602483015283166044820152606481018290526108fb9085906323b872dd60e01b906084015b60408051601f198184030181529190526020810180516001600160e01b03166001600160e01b031990931692909217909152612ed3565b6000612877856128ac565b61288083611189565b156128985761289185858585612fa5565b90506128a4565b61289185858585613053565b949350505050565b604051636eb1769f60e11b81523060048201526001600160a01b037f00000000000000000000000000000000000000000000000000000000000000008116602483015282169063dd62ed3e90604401602060405180830381865afa158015612918573d6000803e3d6000fd5b505050506040513d601f19601f8201168201806040525081019061293c9190613cbb565b611b3557611b356001600160a01b0382167f0000000000000000000000000000000000000000000000000000000000000000600019613213565b600061298185611189565b6129e85760405162461bcd60e51b815260206004820152603260248201527f5a61703a5f72656d6f76654c6971756964697479546f546f6b656e3a205f6c70604482015271206973204e6f6e204c50204164647265737360701b6064820152608401610849565b60008590506000816001600160a01b0316630dfe16816040518163ffffffff1660e01b8152600401602060405180830381865afa158015612a2d573d6000803e3d6000fd5b505050506040513d601f19601f82011682018060405250810190612a519190613d24565b90506000826001600160a01b031663d21220a76040518163ffffffff1660e01b8152600401602060405180830381865afa158015612a93573d6000803e3d6000fd5b505050506040513d601f19601f82011682018060405250810190612ab79190613d24565b604051635d5155ef60e11b81526001600160a01b0384811660048301528281166024830152604482018a9052600060648301819052608483018190523060a48401524260c484015292935082917f00000000000000000000000000000000000000000000000000000000000000009091169063baa2abde9060e40160408051808303816000875af1158015612b50573d6000803e3d6000fd5b505050506040513d601f19601f82011682018060405250810190612b749190613e45565b915091506000886001600160a01b0316846001600160a01b031614612ba457612b9f84838b30613053565b612ba6565b815b896001600160a01b0316866001600160a01b031614612bd057612bcb86858c30613053565b612bd2565b835b612bdc9190613d0c565b9050612bf26001600160a01b038a168983613328565b9a9950505050505050505050565b6001600160a01b038216612c6e5760405162461bcd60e51b815260206004820152602f60248201527f5a61703a5f616464546f6b656e3a205f746f6b656e416464726573732073686f60448201526e756c64206e6f74206265207a65726f60881b6064820152608401610849565b612c7782611189565b15612ccf5760405162461bcd60e51b815260206004820152602260248201527f5a61703a5f616464546f6b656e3a205f746f6b656e416464726573732069732060448201526104c560f41b6064820152608401610849565b600580546001810182557f036b6384b5eca791c62761152d0c79bb0604c104a5fb6f4eb0703f3154bb3db00180546001600160a01b0319166001600160a01b0385169081179091559054600082815260046020908152604091829020929092555183151581527f02fb12ee42ca4026d39d2102e2e3d3fcb4d12c158f8e0028f2f1eed6cf33ecbe910160405180910390a25050565b6001600160a01b038116612de05760405162461bcd60e51b815260206004820152603b60248201527f5a61703a5f616464496e7465726d656469617465546f6b656e3a205f746f6b6560448201527f6e416464726573732073686f756c64206e6f74206265207a65726f00000000006064820152608401610849565b612de981611189565b15612e4d5760405162461bcd60e51b815260206004820152602e60248201527f5a61703a5f616464496e7465726d656469617465546f6b656e3a205f746f6b6560448201526d06e41646472657373206973204c560941b6064820152608401610849565b600780546001810182557fa66cc928b5edb82af9bd49922954155ab7b0942694bea4ce44661d9a8736c6880180546001600160a01b0319166001600160a01b03841690811790915590546000828152600660205260408082209290925590517fc15631f4ae3b982224d43ad1bd5b6ba064e060f12830bd78b02a43e183045aae9190a250565b6000612f28826040518060400160405280602081526020017f5361666545524332303a206c6f772d6c6576656c2063616c6c206661696c6564815250856001600160a01b03166133589092919063ffffffff16565b8051909150156109435780806020019051810190612f469190613cd4565b6109435760405162461bcd60e51b815260206004820152602a60248201527f5361666545524332303a204552433230206f7065726174696f6e20646964206e6044820152691bdd081cdd58d8d9595960b21b6064820152608401610849565b6000612fb083611189565b61300e5760405162461bcd60e51b815260206004820152602960248201527f5a61703a5f73776170546f6b656e546f4c503a205f6c70206973204e6f6e204c60448201526850204164647265737360b81b6064820152608401610849565b60008060008061301f898989613367565b9350935093509350613030846128ac565b613039826128ac565b613046848385848a613596565b9998505050505050505050565b6000806130608685611eec565b905061306b866128ac565b6040516338ed173960e01b81526000906001600160a01b037f000000000000000000000000000000000000000000000000000000000000000016906338ed1739906130c2908990859087908a904290600401613e69565b6000604051808303816000875af11580156130e1573d6000803e3d6000fd5b505050506040513d6000823e601f3d908101601f191682016040526131099190810190613ea5565b90506000816001835161311c9190613d5c565b8151811061312c5761312c613d73565b6020026020010151116131a75760405162461bcd60e51b815260206004820152603960248201527f5a61703a5f73776170546f6b656e546f546f6b656e3a206f757470757420616d60448201527f6f756e747320696e76616c6964202d203020616d6f6f756e74000000000000006064820152608401610849565b7f6683da1ec942d96015ed8dc2a8e5ad662e6613fee8d7e488434713362a6b8c4f82826040516131d8929190613f2b565b60405180910390a180600182516131ef9190613d5c565b815181106131ff576131ff613d73565b602002602001015192505050949350505050565b80158061328d5750604051636eb1769f60e11b81523060048201526001600160a01b03838116602483015284169063dd62ed3e90604401602060405180830381865afa158015613267573d6000803e3d6000fd5b505050506040513d601f19601f8201168201806040525081019061328b9190613cbb565b155b6132f85760405162461bcd60e51b815260206004820152603660248201527f5361666545524332303a20617070726f76652066726f6d206e6f6e2d7a65726f60448201527520746f206e6f6e2d7a65726f20616c6c6f77616e636560501b6064820152608401610849565b6040516001600160a01b03831660248201526044810182905261094390849063095ea7b360e01b90606401612835565b6040516001600160a01b03831660248201526044810182905261094390849063a9059cbb60e01b90606401612835565b60606128a484846000856137aa565b60008060008060008590506000816001600160a01b0316630dfe16816040518163ffffffff1660e01b8152600401602060405180830381865afa1580156133b2573d6000803e3d6000fd5b505050506040513d601f19601f820116820180604052508101906133d69190613d24565b90506000826001600160a01b031663d21220a76040518163ffffffff1660e01b8152600401602060405180830381865afa158015613418573d6000803e3d6000fd5b505050506040513d601f19601f8201168201806040525081019061343c9190613d24565b9050600080836001600160a01b03168c6001600160a01b031614156134845761346660028c613f82565b915061347d8c613476848e613d5c565b8530613053565b9050613583565b826001600160a01b03168c6001600160a01b031614156134c7576134a960028c613f82565b90506134c08c6134b9838e613d5c565b8630613053565b9150613583565b60006134d38d8c61248e565b90506000816001600160a01b03168e6001600160a01b031614613501576134fc8e8e8430613053565b613503565b8c5b90506000613512600283613f82565b905060006135208284613d5c565b9050836001600160a01b0316886001600160a01b03161461354c5761354784838a30613053565b61354e565b815b9550836001600160a01b0316876001600160a01b03161461357a5761357584828930613053565b61357c565b805b9450505050505b9297509550935091505093509350935093565b60405162e8e33760e81b81526001600160a01b0386811660048301528581166024830152604482018590526064820184905260006084830181905260a4830181905283821660c48401524260e4840152918291829182917f0000000000000000000000000000000000000000000000000000000000000000169063e8e3370090610104016060604051808303816000875af1158015613639573d6000803e3d6000fd5b505050506040513d601f19601f8201168201806040525081019061365d9190613fa4565b9194509250905060006136708489613d5c565b1115613701576001600160a01b03891663a9059cbb86613690868b613d5c565b6040516001600160e01b031960e085901b1681526001600160a01b03909216600483015260248201526044016020604051808303816000875af11580156136db573d6000803e3d6000fd5b505050506040513d601f19601f820116820180604052508101906136ff9190613cd4565b505b600061370d8388613d5c565b111561379e576001600160a01b03881663a9059cbb8661372d858a613d5c565b6040516001600160e01b031960e085901b1681526001600160a01b03909216600483015260248201526044016020604051808303816000875af1158015613778573d6000803e3d6000fd5b505050506040513d601f19601f8201168201806040525081019061379c9190613cd4565b505b98975050505050505050565b60608247101561380b5760405162461bcd60e51b815260206004820152602660248201527f416464726573733a20696e73756666696369656e742062616c616e636520666f6044820152651c8818d85b1b60d21b6064820152608401610849565b843b6138595760405162461bcd60e51b815260206004820152601d60248201527f416464726573733a2063616c6c20746f206e6f6e2d636f6e74726163740000006044820152606401610849565b600080866001600160a01b031685876040516138759190613ffe565b60006040518083038185875af1925050503d80600081146138b2576040519150601f19603f3d011682016040523d82523d6000602084013e6138b7565b606091505b50915091506138c78282866138d2565b979650505050505050565b606083156138e1575081610a60565b8251156138f15782518084602001fd5b8160405162461bcd60e51b8152600401610849919061401a565b5080546000825590600052602060002090810190611b35919061398e565b82805482825590600052602060002090810192821561397e579160200282015b8281111561397e57825182546001600160a01b0319166001600160a01b03909116178255602090920191600190910190613949565b5061398a92915061398e565b5090565b5b8082111561398a576000815560010161398f565b6001600160a01b0381168114611b3557600080fd5b600080604083850312156139cb57600080fd5b82356139d6816139a3565b915060208301356139e6816139a3565b809150509250929050565b600081518084526020808501945080840160005b83811015613a2a5781516001600160a01b031687529582019590820190600101613a05565b509495945050505050565b602081526000610a6060208301846139f1565b600060208284031215613a5a57600080fd5b8135610a60816139a3565b60008060408385031215613a7857600080fd5b8235613a83816139a3565b946020939093013593505050565b634e487b7160e01b600052604160045260246000fd5b604051601f8201601f1916810167ffffffffffffffff81118282101715613ad057613ad0613a91565b604052919050565b600067ffffffffffffffff821115613af257613af2613a91565b5060051b60200190565b600080600060608486031215613b1157600080fd5b8335613b1c816139a3565b9250602084810135613b2d816139a3565b9250604085013567ffffffffffffffff811115613b4957600080fd5b8501601f81018713613b5a57600080fd5b8035613b6d613b6882613ad8565b613aa7565b81815260059190911b82018301908381019089831115613b8c57600080fd5b928401925b82841015613bb3578335613ba4816139a3565b82529284019290840190613b91565b80955050505050509250925092565b60008060408385031215613bd557600080fd5b50508035926020909101359150565b600060208284031215613bf657600080fd5b5035919050565b60008060008060808587031215613c1357600080fd5b8435613c1e816139a3565b9350602085013592506040850135613c35816139a3565b9396929550929360600135925050565b600080600060608486031215613c5a57600080fd5b8335613c65816139a3565b92506020840135613c75816139a3565b929592945050506040919091013590565b6020808252818101527f4f776e61626c653a2063616c6c6572206973206e6f7420746865206f776e6572604082015260600190565b600060208284031215613ccd57600080fd5b5051919050565b600060208284031215613ce657600080fd5b81518015158114610a6057600080fd5b634e487b7160e01b600052601160045260246000fd5b60008219821115613d1f57613d1f613cf6565b500190565b600060208284031215613d3657600080fd5b8151610a60816139a3565b6000600019821415613d5557613d55613cf6565b5060010190565b600082821015613d6e57613d6e613cf6565b500390565b634e487b7160e01b600052603260045260246000fd5b634e487b7160e01b600052603160045260246000fd5b6020808252601f908201527f5265656e7472616e637947756172643a207265656e7472616e742063616c6c00604082015260600190565b6020808252602b908201527f5a61703a7a6170496e3a206f757470757420616d6f756e74206c65737320746860408201526a185b88195e1c1958dd195960aa1b606082015260800190565b604081526000613e3460408301856139f1565b905082151560208301529392505050565b60008060408385031215613e5857600080fd5b505080516020909101519092909150565b85815284602082015260a060408201526000613e8860a08301866139f1565b6001600160a01b0394909416606083015250608001529392505050565b60006020808385031215613eb857600080fd5b825167ffffffffffffffff811115613ecf57600080fd5b8301601f81018513613ee057600080fd5b8051613eee613b6882613ad8565b81815260059190911b82018301908381019087831115613f0d57600080fd5b928401925b828410156138c757835182529284019290840190613f12565b604081526000613f3e60408301856139f1565b82810360208481019190915284518083528582019282019060005b81811015613f7557845183529383019391830191600101613f59565b5090979650505050505050565b600082613f9f57634e487b7160e01b600052601260045260246000fd5b500490565b600080600060608486031215613fb957600080fd5b8351925060208401519150604084015190509250925092565b60005b83811015613fed578181015183820152602001613fd5565b838111156108fb5750506000910152565b60008251614010818460208701613fd2565b9190910192915050565b6020815260008251806020840152614039816040850160208701613fd2565b601f01601f1916919091016040019291505056fea26469706673582212204240c7dab62afddabe544baadaab424143b35908528b1ddedf0f984aa180920d64736f6c634300080b00335a61703a5f616464496e7465726d656469617465546f6b656e3a205f746f6b65",
  "linkReferences": {},
  "deployedLinkReferences": {}
}