{
  "_format": "hh-sol-artifact-1",
  "contractName": "ZapEstimator",
  "sourceName": "contracts/ZapEstimator.sol",
  "abi": [
    {
      "inputs": [
        {
          "internalType": "address",
          "name": "_zap",
          "type": "address"
        }
      ],
      "stateMutability": "nonpayable",
      "type": "constructor"
    },
    {
      "anonymous": false,
      "inputs": [
        {
          "indexed": true,
          "internalType": "address",
          "name": "previousOwner",
          "type": "address"
        },
        {
          "indexed": true,
          "internalType": "address",
          "name": "newOwner",
          "type": "address"
        }
      ],
      "name": "OwnershipTransferred",
      "type": "event"
    },
    {
      "inputs": [
        {
          "internalType": "uint256",
          "name": "_token0Amount",
          "type": "uint256"
        },
        {
          "internalType": "uint256",
          "name": "_token1Amount",
          "type": "uint256"
        },
        {
          "internalType": "address",
          "name": "_toLP",
          "type": "address"
        }
      ],
      "name": "estimateAddLiquidityOutputAmount",
      "outputs": [
        {
          "internalType": "uint256",
          "name": "",
          "type": "uint256"
        }
      ],
      "stateMutability": "view",
      "type": "function"
    },
    {
      "inputs": [
        {
          "internalType": "uint256",
          "name": "_liquidityAmount",
          "type": "uint256"
        },
        {
          "internalType": "address",
          "name": "_toLP",
          "type": "address"
        }
      ],
      "name": "estimateRemoveLiquidityOutputAmount",
      "outputs": [
        {
          "internalType": "uint256",
          "name": "",
          "type": "uint256"
        },
        {
          "internalType": "uint256",
          "name": "",
          "type": "uint256"
        }
      ],
      "stateMutability": "view",
      "type": "function"
    },
    {
      "inputs": [
        {
          "internalType": "address",
          "name": "_tokenIn",
          "type": "address"
        },
        {
          "internalType": "address",
          "name": "_tokenOut",
          "type": "address"
        },
        {
          "internalType": "uint256",
          "name": "_inputAmount",
          "type": "uint256"
        }
      ],
      "name": "estimateSwapAmountOut",
      "outputs": [
        {
          "internalType": "uint256",
          "name": "",
          "type": "uint256"
        }
      ],
      "stateMutability": "view",
      "type": "function"
    },
    {
      "inputs": [
        {
          "internalType": "address",
          "name": "_fromToken",
          "type": "address"
        },
        {
          "internalType": "uint256",
          "name": "_inputAmount",
          "type": "uint256"
        },
        {
          "internalType": "address",
          "name": "_LP",
          "type": "address"
        }
      ],
      "name": "estimateZapInToLpSwapPaths",
      "outputs": [
        {
          "internalType": "address[]",
          "name": "",
          "type": "address[]"
        },
        {
          "internalType": "uint256[]",
          "name": "",
          "type": "uint256[]"
        },
        {
          "internalType": "uint256",
          "name": "",
          "type": "uint256"
        },
        {
          "internalType": "uint256",
          "name": "",
          "type": "uint256"
        }
      ],
      "stateMutability": "view",
      "type": "function"
    },
    {
      "inputs": [
        {
          "internalType": "address",
          "name": "_fromLP",
          "type": "address"
        },
        {
          "internalType": "uint256",
          "name": "_inputAmount",
          "type": "uint256"
        },
        {
          "internalType": "address",
          "name": "_toToken",
          "type": "address"
        }
      ],
      "name": "estimateZapOutToTokenOutputAmount",
      "outputs": [
        {
          "internalType": "uint256",
          "name": "",
          "type": "uint256"
        },
        {
          "internalType": "uint256",
          "name": "",
          "type": "uint256"
        },
        {
          "internalType": "uint256",
          "name": "",
          "type": "uint256"
        }
      ],
      "stateMutability": "view",
      "type": "function"
    },
    {
      "inputs": [
        {
          "internalType": "address",
          "name": "_fromToken",
          "type": "address"
        },
        {
          "internalType": "address",
          "name": "_toToken",
          "type": "address"
        },
        {
          "internalType": "uint256",
          "name": "_inputAmount",
          "type": "uint256"
        }
      ],
      "name": "estimateZapTokenToTokenAmountsOut",
      "outputs": [
        {
          "internalType": "address[]",
          "name": "",
          "type": "address[]"
        },
        {
          "internalType": "uint256[]",
          "name": "",
          "type": "uint256[]"
        }
      ],
      "stateMutability": "view",
      "type": "function"
    },
    {
      "inputs": [],
      "name": "owner",
      "outputs": [
        {
          "internalType": "address",
          "name": "",
          "type": "address"
        }
      ],
      "stateMutability": "view",
      "type": "function"
    },
    {
      "inputs": [],
      "name": "renounceOwnership",
      "outputs": [],
      "stateMutability": "nonpayable",
      "type": "function"
    },
    {
      "inputs": [
        {
          "internalType": "address",
          "name": "newOwner",
          "type": "address"
        }
      ],
      "name": "transferOwnership",
      "outputs": [],
      "stateMutability": "nonpayable",
      "type": "function"
    },
    {
      "inputs": [
        {
          "internalType": "address",
          "name": "_token",
          "type": "address"
        },
        {
          "internalType": "uint256",
          "name": "_amount",
          "type": "uint256"
        }
      ],
      "name": "withdrawBalance",
      "outputs": [],
      "stateMutability": "payable",
      "type": "function"
    },
    {
      "inputs": [],
      "name": "zap",
      "outputs": [
        {
          "internalType": "contract IZap",
          "name": "",
          "type": "address"
        }
      ],
      "stateMutability": "view",
      "type": "function"
    }
  ],
  "bytecode": "0x60a06040523480156200001157600080fd5b5060405162002a5338038062002a538339810160408190526200003491620000a1565b6200003f3362000051565b6001600160a01b0316608052620000d3565b600080546001600160a01b038381166001600160a01b0319831681178455604051919092169283917f8be0079c531659141344cd1fd0a4f28419497f9722a3daafe3b4186f6b6457e09190a35050565b600060208284031215620000b457600080fd5b81516001600160a01b0381168114620000cc57600080fd5b9392505050565b6080516128e76200016c6000396000818160c8015281816104c9015281816105df0152818161072f0152818161083901528181610b3b01528181610bdd01528181610ff6015281816111a20152818161123d015281816112df015281816113df015281816114f7015281816115eb015281816116e601528181611ee201528181611f55015281816120a201526121db01526128e76000f3fe60806040526004361061009c5760003560e01c80638da5cb5b116100645780638da5cb5b1461017f5780639d093c181461019d578063a9576021146101d8578063da144ae114610208578063dcc46e7a14610236578063f2fde38b1461025657600080fd5b80630cf20cc9146100a1578063262d6152146100b65780634313d80614610107578063628cd27214610135578063715018a61461016a575b600080fd5b6100b46100af36600461237e565b610276565b005b3480156100c257600080fd5b506100ea7f000000000000000000000000000000000000000000000000000000000000000081565b6040516001600160a01b0390911681526020015b60405180910390f35b34801561011357600080fd5b506101276101223660046123aa565b6104a7565b6040519081526020016100fe565b34801561014157600080fd5b506101556101503660046123e3565b6105bb565b604080519283526020830191909152016100fe565b34801561017657600080fd5b506100b46106d1565b34801561018b57600080fd5b506000546001600160a01b03166100ea565b3480156101a957600080fd5b506101bd6101b8366004612413565b610707565b604080519384526020840192909252908201526060016100fe565b3480156101e457600080fd5b506101f86101f3366004612413565b610b1d565b6040516100fe94939291906124be565b34801561021457600080fd5b506102286102233660046124f7565b611186565b6040516100fe929190612538565b34801561024257600080fd5b506101276102513660046124f7565b6114d5565b34801561026257600080fd5b506100b4610271366004612566565b6117bb565b6000546001600160a01b031633146102a95760405162461bcd60e51b81526004016102a090612583565b60405180910390fd5b6001600160a01b03821661039f5747801561039a578161035857604051600090339083908381818185875af1925050503d8060008114610305576040519150601f19603f3d011682016040523d82523d6000602084013e61030a565b606091505b50509050806103525760405162461bcd60e51b81526020600482015260146024820152732330b4b632b2103a379039b2b7321022ba3432b960611b60448201526064016102a0565b50505050565b604051600090339084908381818185875af1925050503d8060008114610305576040519150601f19603f3d011682016040523d82523d6000602084013e61030a565b505050565b6040516370a0823160e01b81523060048201526000906001600160a01b038416906370a0823190602401602060405180830381865afa1580156103e6573d6000803e3d6000fd5b505050506040513d601f19601f8201168201806040525081019061040a91906125b8565b905081610415578091505b826001600160a01b031663a9059cbb6104366000546001600160a01b031690565b6040516001600160e01b031960e084901b1681526001600160a01b039091166004820152602481018590526044016020604051808303816000875af1158015610483573d6000803e3d6000fd5b505050506040513d601f19601f8201168201806040525081019061035291906125d1565b604051637df0f76760e01b81526001600160a01b0382811660048301526000917f000000000000000000000000000000000000000000000000000000000000000090911690637df0f76790602401602060405180830381865afa158015610512573d6000803e3d6000fd5b505050506040513d601f19601f8201168201806040525081019061053691906125d1565b6105a85760405162461bcd60e51b815260206004820152603b60248201527f5a61703a657374696d6174654164644c69717569646974794f7574707574416d60448201527f6f756e743a20696e76616c6964205f746f4c502041646472657373000000000060648201526084016102a0565b6105b3848484611856565b949350505050565b604051637df0f76760e01b81526001600160a01b03828116600483015260009182917f00000000000000000000000000000000000000000000000000000000000000001690637df0f76790602401602060405180830381865afa158015610626573d6000803e3d6000fd5b505050506040513d601f19601f8201168201806040525081019061064a91906125d1565b6106bc5760405162461bcd60e51b815260206004820152603e60248201527f5a61703a657374696d61746552656d6f76654c69717569646974794f7574707560448201527f74416d6f756e743a20696e76616c6964205f746f4c502041646472657373000060648201526084016102a0565b6106c68484611bee565b915091509250929050565b6000546001600160a01b031633146106fb5760405162461bcd60e51b81526004016102a090612583565b6107056000611e37565b565b604051637df0f76760e01b81526001600160a01b0384811660048301526000918291829182917f00000000000000000000000000000000000000000000000000000000000000001690637df0f76790602401602060405180830381865afa158015610776573d6000803e3d6000fd5b505050506040513d601f19601f8201168201806040525081019061079a91906125d1565b61080e576040805162461bcd60e51b81526020600482015260248101919091527f5a61703a657374696d61746552656d6f76654c69717569646974794f7574707560448201527f74416d6f756e743a20696e76616c6964205f66726f6d4c50204164647265737360648201526084016102a0565b60008061081b888a611bee565b909250905060006001600160a01b0388161561083757876108b9565b7f00000000000000000000000000000000000000000000000000000000000000006001600160a01b031663ad5c46486040518163ffffffff1660e01b8152600401602060405180830381865afa158015610895573d6000803e3d6000fd5b505050506040513d601f19601f820116820180604052508101906108b991906125f3565b9050806001600160a01b03168a6001600160a01b0316630dfe16816040518163ffffffff1660e01b8152600401602060405180830381865afa158015610903573d6000803e3d6000fd5b505050506040513d601f19601f8201168201806040525081019061092791906125f3565b6001600160a01b0316141561093e578293506109da565b60006109ac8b6001600160a01b0316630dfe16816040518163ffffffff1660e01b8152600401602060405180830381865afa158015610981573d6000803e3d6000fd5b505050506040513d601f19601f820116820180604052508101906109a591906125f3565b8386611e87565b91505080600182516109be9190612626565b815181106109ce576109ce61263d565b60200260200101519450505b806001600160a01b03168a6001600160a01b031663d21220a76040518163ffffffff1660e01b8152600401602060405180830381865afa158015610a22573d6000803e3d6000fd5b505050506040513d601f19601f82011682018060405250810190610a4691906125f3565b6001600160a01b03161415610a6657610a5f8285612653565b9350610b0d565b6000610ad48b6001600160a01b031663d21220a76040518163ffffffff1660e01b8152600401602060405180830381865afa158015610aa9573d6000803e3d6000fd5b505050506040513d601f19601f82011682018060405250810190610acd91906125f3565b8385611e87565b9150508060018251610ae69190612626565b81518110610af657610af661263d565b602002602001015185610b099190612653565b9450505b5090989097509095509350505050565b606080600080806001600160a01b03881615610b395787610bbb565b7f00000000000000000000000000000000000000000000000000000000000000006001600160a01b031663ad5c46486040518163ffffffff1660e01b8152600401602060405180830381865afa158015610b97573d6000803e3d6000fd5b505050506040513d601f19601f82011682018060405250810190610bbb91906125f3565b604051637df0f76760e01b81526001600160a01b0388811660048301529192507f000000000000000000000000000000000000000000000000000000000000000090911690637df0f76790602401602060405180830381865afa158015610c26573d6000803e3d6000fd5b505050506040513d601f19601f82011682018060405250810190610c4a91906125d1565b610cb25760405162461bcd60e51b815260206004820152603360248201527f5a61703a657374696d6174655a6170496e546f4c705377617050617468733a20604482015272696e76616c6964205f4c50204164647265737360681b60648201526084016102a0565b6000866001600160a01b0316630dfe16816040518163ffffffff1660e01b8152600401602060405180830381865afa158015610cf2573d6000803e3d6000fd5b505050506040513d601f19601f82011682018060405250810190610d1691906125f3565b90506000876001600160a01b031663d21220a76040518163ffffffff1660e01b8152600401602060405180830381865afa158015610d58573d6000803e3d6000fd5b505050506040513d601f19601f82011682018060405250810190610d7c91906125f3565b9050816001600160a01b03168a6001600160a01b03161480610daf5750806001600160a01b03168a6001600160a01b0316145b15610fcc576040805160028082526060820183526000926020830190803683370190505090508a81600081518110610de957610de961263d565b6001600160a01b039290921660209283029190910182015260408051600280825260608201835260009391929091830190803683370190505090506000610e3160028d612681565b610e3b908d612626565b90508082600081518110610e5157610e5161263d565b602002602001018181525050846001600160a01b03168d6001600160a01b03161415610f0f578383600181518110610e8b57610e8b61263d565b60200260200101906001600160a01b031690816001600160a01b031681525050610eb68d8583612074565b82600181518110610ec957610ec961263d565b60209081029190910101528282610ee160028f612681565b84600181518110610ef457610ef461263d565b6020026020010151995099509950995050505050505061117d565b836001600160a01b03168d6001600160a01b03161415610fc4578483600181518110610f3d57610f3d61263d565b60200260200101906001600160a01b031690816001600160a01b031681525050610f688d8683612074565b82600181518110610f7b57610f7b61263d565b602002602001018181525050828283600181518110610f9c57610f9c61263d565b602002602001015160028f610fb19190612681565b995099509950995050505050505061117d565b505050611179565b604051632f73a8ad60e11b81526001600160a01b03848116600483015289811660248301526000917f000000000000000000000000000000000000000000000000000000000000000090911690635ee7515a90604401602060405180830381865afa15801561103f573d6000803e3d6000fd5b505050506040513d601f19601f8201168201806040525081019061106391906125f3565b905060008061107386848e611e87565b91509150600080825111611087578c6110af565b81600183516110969190612626565b815181106110a6576110a661263d565b60200260200101515b9050600080876001600160a01b0316866001600160a01b031614156110f6576110d9600284612681565b91506110ef86886110ea8587612626565b612074565b9050611162565b866001600160a01b0316866001600160a01b031614156111335761111b600284612681565b905061112c86896110ea8487612626565b9150611162565b61114386896110ea600287612681565b915061115f8688611155600287612681565b6110ea9087612626565b90505b939b5091995090975090955061117d945050505050565b5050505b93509350935093565b60608060006001600160a01b038616156111a05785611222565b7f00000000000000000000000000000000000000000000000000000000000000006001600160a01b031663ad5c46486040518163ffffffff1660e01b8152600401602060405180830381865afa1580156111fe573d6000803e3d6000fd5b505050506040513d601f19601f8201168201806040525081019061122291906125f3565b905060006001600160a01b0386161561123b57856112bd565b7f00000000000000000000000000000000000000000000000000000000000000006001600160a01b031663ad5c46486040518163ffffffff1660e01b8152600401602060405180830381865afa158015611299573d6000803e3d6000fd5b505050506040513d601f19601f820116820180604052508101906112bd91906125f3565b6040516319f3736160e01b81526001600160a01b0384811660048301529192507f0000000000000000000000000000000000000000000000000000000000000000909116906319f3736190602401602060405180830381865afa158015611328573d6000803e3d6000fd5b505050506040513d601f19601f8201168201806040525081019061134c91906125d1565b6113c0576040805162461bcd60e51b81526020600482015260248101919091527f5a61703a657374696d6174655a6170546f6b656e546f546f6b656e416d6f756e60448201527f74734f75743a20696e76616c69642066726f6d546f6b656e204164647265737360648201526084016102a0565b6040516319f3736160e01b81526001600160a01b0382811660048301527f000000000000000000000000000000000000000000000000000000000000000016906319f3736190602401602060405180830381865afa158015611426573d6000803e3d6000fd5b505050506040513d601f19601f8201168201806040525081019061144a91906125d1565b6114bc5760405162461bcd60e51b815260206004820152603e60248201527f5a61703a657374696d6174655a6170546f6b656e546f546f6b656e416d6f756e60448201527f74734f75743a20696e76616c696420746f546f6b656e2041646472657373000060648201526084016102a0565b6114c7828287611e87565b935093505050935093915050565b6040516319f3736160e01b81526001600160a01b0384811660048301526000917f0000000000000000000000000000000000000000000000000000000000000000909116906319f3736190602401602060405180830381865afa158015611540573d6000803e3d6000fd5b505050506040513d601f19601f8201168201806040525081019061156491906125d1565b6115cc5760405162461bcd60e51b815260206004820152603360248201527f5a61703a657374696d61746553776170416d6f756e744f75743a20696e76616c6044820152726964205f746f6b656e496e204164647265737360681b60648201526084016102a0565b6040516319f3736160e01b81526001600160a01b0384811660048301527f000000000000000000000000000000000000000000000000000000000000000016906319f3736190602401602060405180830381865afa158015611632573d6000803e3d6000fd5b505050506040513d601f19601f8201168201806040525081019061165691906125d1565b6116bf5760405162461bcd60e51b815260206004820152603460248201527f5a61703a657374696d61746553776170416d6f756e744f75743a20696e76616c6044820152736964205f746f6b656e4f7574204164647265737360601b60648201526084016102a0565b60405163d118a51960e01b81526001600160a01b03858116600483015284811660248301527f0000000000000000000000000000000000000000000000000000000000000000169063d118a51990604401602060405180830381865afa15801561172d573d6000803e3d6000fd5b505050506040513d601f19601f8201168201806040525081019061175191906125d1565b6117b05760405162461bcd60e51b815260206004820152602a60248201527f5a61703a657374696d61746553776170416d6f756e744f75743a206e6f20737560448201526931b4102628103830b4b960b11b60648201526084016102a0565b6105b3848484612074565b6000546001600160a01b031633146117e55760405162461bcd60e51b81526004016102a090612583565b6001600160a01b03811661184a5760405162461bcd60e51b815260206004820152602660248201527f4f776e61626c653a206e6577206f776e657220697320746865207a65726f206160448201526564647265737360d01b60648201526084016102a0565b61185381611e37565b50565b600080829050600080826001600160a01b0316630902f1ac6040518163ffffffff1660e01b8152600401606060405180830381865afa15801561189d573d6000803e3d6000fd5b505050506040513d601f19601f820116820180604052508101906118c191906126ba565b50915091506000826001600160701b031688856001600160a01b0316630dfe16816040518163ffffffff1660e01b8152600401602060405180830381865afa158015611911573d6000803e3d6000fd5b505050506040513d601f19601f8201168201806040525081019061193591906125f3565b6040516370a0823160e01b81526001600160a01b038a8116600483015291909116906370a0823190602401602060405180830381865afa15801561197d573d6000803e3d6000fd5b505050506040513d601f19601f820116820180604052508101906119a191906125b8565b6119ab9190612653565b6119b59190612626565b90506000826001600160701b031688866001600160a01b031663d21220a76040518163ffffffff1660e01b8152600401602060405180830381865afa158015611a02573d6000803e3d6000fd5b505050506040513d601f19601f82011682018060405250810190611a2691906125f3565b6040516370a0823160e01b81526001600160a01b038b8116600483015291909116906370a0823190602401602060405180830381865afa158015611a6e573d6000803e3d6000fd5b505050506040513d601f19601f82011682018060405250810190611a9291906125b8565b611a9c9190612653565b611aa69190612626565b9050600080866001600160a01b03166318160ddd6040518163ffffffff1660e01b8152600401602060405180830381865afa158015611ae9573d6000803e3d6000fd5b505050506040513d601f19601f82011682018060405250810190611b0d91906125b8565b905080611b9957866001600160a01b031663ba9a7a566040518163ffffffff1660e01b8152600401602060405180830381865afa158015611b52573d6000803e3d6000fd5b505050506040513d601f19601f82011682018060405250810190611b7691906125b8565b611b88611b8385876126ff565b6122e1565b611b929190612626565b9150611be0565b611bdd6001600160701b038716611bb083876126ff565b611bba9190612681565b6001600160701b038716611bce84876126ff565b611bd89190612681565b612351565b91505b509998505050505050505050565b60008060008390506000816001600160a01b03166318160ddd6040518163ffffffff1660e01b8152600401602060405180830381865afa158015611c36573d6000803e3d6000fd5b505050506040513d601f19601f82011682018060405250810190611c5a91906125b8565b9050600081836001600160a01b0316630dfe16816040518163ffffffff1660e01b8152600401602060405180830381865afa158015611c9d573d6000803e3d6000fd5b505050506040513d601f19601f82011682018060405250810190611cc191906125f3565b6040516370a0823160e01b81526001600160a01b03898116600483015291909116906370a0823190602401602060405180830381865afa158015611d09573d6000803e3d6000fd5b505050506040513d601f19601f82011682018060405250810190611d2d91906125b8565b611d3790896126ff565b611d419190612681565b9050600082846001600160a01b031663d21220a76040518163ffffffff1660e01b8152600401602060405180830381865afa158015611d84573d6000803e3d6000fd5b505050506040513d601f19601f82011682018060405250810190611da891906125f3565b6040516370a0823160e01b81526001600160a01b038a8116600483015291909116906370a0823190602401602060405180830381865afa158015611df0573d6000803e3d6000fd5b505050506040513d601f19601f82011682018060405250810190611e1491906125b8565b611e1e908a6126ff565b611e289190612681565b91989197509095505050505050565b600080546001600160a01b038381166001600160a01b0319831681178455604051919092169283917f8be0079c531659141344cd1fd0a4f28419497f9722a3daafe3b4186f6b6457e09190a35050565b60608080806001600160a01b03861615801590611eb65750856001600160a01b0316876001600160a01b031614155b1561204e576040516306bf5c5360e11b81526001600160a01b03888116600483015287811660248301527f00000000000000000000000000000000000000000000000000000000000000001690630d7eb8a690604401600060405180830381865afa158015611f29573d6000803e3d6000fd5b505050506040513d6000823e601f3d908101601f19168201604052611f519190810190612773565b91507f00000000000000000000000000000000000000000000000000000000000000006001600160a01b03166332fe7b266040518163ffffffff1660e01b8152600401602060405180830381865afa158015611fb1573d6000803e3d6000fd5b505050506040513d601f19601f82011682018060405250810190611fd591906125f3565b6001600160a01b031663d06ca61f86846040518363ffffffff1660e01b8152600401612002929190612812565b600060405180830381865afa15801561201f573d6000803e3d6000fd5b505050506040513d6000823e601f3d908101601f19168201604052612047919081019061282b565b9050612068565b505060408051600080825260208201908152818301909252905b90969095509350505050565b6040516395d5fe8560e01b81526001600160a01b0384811660048301528381166024830152600091829182917f0000000000000000000000000000000000000000000000000000000000000000909116906395d5fe8590604401602060405180830381865afa1580156120eb573d6000803e3d6000fd5b505050506040513d601f19601f8201168201806040525081019061210f91906125f3565b6001600160a01b0316630902f1ac6040518163ffffffff1660e01b8152600401606060405180830381865afa15801561214c573d6000803e3d6000fd5b505050506040513d601f19601f8201168201806040525081019061217091906126ba565b506001600160701b031691506001600160701b031691506000856001600160a01b0316876001600160a01b0316106121a95785876121ac565b86865b509050600080826001600160a01b0316896001600160a01b0316146121d25783856121d5565b84845b915091507f00000000000000000000000000000000000000000000000000000000000000006001600160a01b03166332fe7b266040518163ffffffff1660e01b8152600401602060405180830381865afa158015612237573d6000803e3d6000fd5b505050506040513d601f19601f8201168201806040525081019061225b91906125f3565b604051630153543560e21b81526004810189905260248101849052604481018390526001600160a01b03919091169063054d50d490606401602060405180830381865afa1580156122b0573d6000803e3d6000fd5b505050506040513d601f19601f820116820180604052508101906122d491906125b8565b9998505050505050505050565b6000600382111561234257508060006122fb600283612681565b612306906001612653565b90505b8181101561233c579050806002816123218186612681565b61232b9190612653565b6123359190612681565b9050612309565b50919050565b811561234c575060015b919050565b60008183106123605781612362565b825b9392505050565b6001600160a01b038116811461185357600080fd5b6000806040838503121561239157600080fd5b823561239c81612369565b946020939093013593505050565b6000806000606084860312156123bf57600080fd5b833592506020840135915060408401356123d881612369565b809150509250925092565b600080604083850312156123f657600080fd5b82359150602083013561240881612369565b809150509250929050565b60008060006060848603121561242857600080fd5b833561243381612369565b92506020840135915060408401356123d881612369565b600081518084526020808501945080840160005b838110156124835781516001600160a01b03168752958201959082019060010161245e565b509495945050505050565b600081518084526020808501945080840160005b83811015612483578151875295820195908201906001016124a2565b6080815260006124d1608083018761244a565b82810360208401526124e3818761248e565b604084019590955250506060015292915050565b60008060006060848603121561250c57600080fd5b833561251781612369565b9250602084013561252781612369565b929592945050506040919091013590565b60408152600061254b604083018561244a565b828103602084015261255d818561248e565b95945050505050565b60006020828403121561257857600080fd5b813561236281612369565b6020808252818101527f4f776e61626c653a2063616c6c6572206973206e6f7420746865206f776e6572604082015260600190565b6000602082840312156125ca57600080fd5b5051919050565b6000602082840312156125e357600080fd5b8151801515811461236257600080fd5b60006020828403121561260557600080fd5b815161236281612369565b634e487b7160e01b600052601160045260246000fd5b60008282101561263857612638612610565b500390565b634e487b7160e01b600052603260045260246000fd5b6000821982111561266657612666612610565b500190565b634e487b7160e01b600052604160045260246000fd5b60008261269e57634e487b7160e01b600052601260045260246000fd5b500490565b80516001600160701b038116811461234c57600080fd5b6000806000606084860312156126cf57600080fd5b6126d8846126a3565b92506126e6602085016126a3565b9150604084015163ffffffff811681146123d857600080fd5b600081600019048311821515161561271957612719612610565b500290565b604051601f8201601f1916810167ffffffffffffffff811182821017156127475761274761266b565b604052919050565b600067ffffffffffffffff8211156127695761276961266b565b5060051b60200190565b6000602080838503121561278657600080fd5b825167ffffffffffffffff81111561279d57600080fd5b8301601f810185136127ae57600080fd5b80516127c16127bc8261274f565b61271e565b81815260059190911b820183019083810190878311156127e057600080fd5b928401925b828410156128075783516127f881612369565b825292840192908401906127e5565b979650505050505050565b8281526040602082015260006105b3604083018461244a565b6000602080838503121561283e57600080fd5b825167ffffffffffffffff81111561285557600080fd5b8301601f8101851361286657600080fd5b80516128746127bc8261274f565b81815260059190911b8201830190838101908783111561289357600080fd5b928401925b828410156128075783518252928401929084019061289856fea264697066735822122075656e60b1354799d9866a81f61242b148b67a7acad26e92b2039075c2c7a73764736f6c634300080b0033",
  "linkReferences": {},
  "deployedLinkReferences": {}
}